:100000000C944C000C9456000C9456000C94560022
:100010000C9456000C9456000C9456000C94560008
:100020000C9456000C9456000C9456000C945600F8
:100030000C9456000C9456000C9456000C945600E8
:100040000C9456000C9456000C9456000C945600D8
:100050000C9456000C9456000C9456000C945600C8
:100060000C9456000C9456000C9456000C945600B8
:100070000C9456000C9456000C9456000C945600A8
:100080000C9456000C9456000C9456000C94560098
:100090000C9456000C94560011241FBECFEFD0E1F3
:1000A000DEBFCDBF0E946D000C9476000C94000062
:1000B00011B880EC84B98FEF87B91AB887E08DB991
:1000C00010BA089585B18F7385B918B885B1806C61
:1000D00085B985B18F7385B908950E9458000E9433
:1000E000620080E885B98AEA88B9FECFF894FFCF2C
:00000001FF
